:020000040800F2
:1000000000000120190B0008690B0008690B0008AB
:10001000690B0008690B0008690B0008000000006C
:10002000000000000000000000000000690B000854
:10003000690B000800000000690B0008690B00084C
:1000400000000000690B0008690B0008690B00083C
:10005000690B0008690B0008690B0008690B0008B0
:10006000690B0008690B0008690B0008000000001C
:100070000000000000000000000000000000000080
:1000800000000000000000003D0900080000000022
:10009000000000000000000000000000690B0008E4
:1000A000690B0008690B0008690B0008690B000860
:1000B000690B0008690B000800000000690B0008CC
:1000C000690B0008690B0008690B0008690B000840
:1000D000690B0008000000000000000000000000A4
:1000E000690B0008690B0008690B0008000000009C
:1000F0000000000000000000000000000000000000
:1001000000000000690B000800000000690B0008F7
:1001100000000000000000000000000000000000DF
:1001200000000000000000000000000000000000CF
:1001300000000000000000000000000000000000BF
:10014000000000000000000000000000690B000833
:10015000000000000000000000000000000000009F
:10016000690B0008690B0008000000000000000097
:10017000000000000000000000000000000000007F
:1001800000000000690B00080000000000000000F3
:04019000690B0008EF
:1001940010B5054C237833B9044B13B10448AFF3BD
:1001A40000800123237010BD2C04002000000000F7
:1001B4008C0D000808B5034B1BB103490348AFF38A
:1001C400008008BD00000000300400208C0D0008F1
:1001D40080B485B000AF7860494B1B68484A43F04F
:1001E40001031360464B1B68454A43F00203136046
:1001F400444B5B6C434A43F4807353647B681B78C1
:10020400FB73FB7B032B3FD801A252F823F000BF02
:10021400250200083F020008590200087302000882
:10022400394B5B68384A23F480435360364B5B6830
:10023400354A23F40043536032E0334B5B68324A5F
:1002440043F480435360304B5B682F4A23F40043EC
:10025400536025E02C4B5B682B4A23F480435360A6
:10026400294B5B68284A43F40043536018E0264B4B
:100274005B68254A43F480435360234B5B68224AFE
:1002840043F4004353600BE01F4B5B681E4A23F4A6
:10029400804353601C4B5B681B4A23F40043536048
:1002A4007B685B78BB73BB7B002B02D0012B07D030
:1002B4000DE0154B9B68144A23F0020393600CE095
:1002C400114B9B68104A43F00203936005E00E4B08
:1002D4009B680D4A23F0020393600B4B5B680A4A48
:1002E40043F020035360094B1B68084A43F48023FE
:1002F400136000BF1437BD465DF8047B704700BF30
:1003040000040240003802400020014000E100E007
:1003140080B483B000AF0346FB710C4B9B680B4A5F
:1003240043F001039360094B5A6BFB79074913436C
:100334004B63064B9B68054A43F08043936000BFC0
:100344000C37BD465DF8047B704700BF00200140B8
:1003540080B582B000AF002301220321154800F0CC
:100364006DF9002301220121124800F067F90023EE
:10037400012202210F4800F061F900237B6009E0AB
:100384007B68D9B2002301220B4800F057F97B683F
:1003940001337B607B68072BF2DD382000F00EF818
:1003A4000C2000F00BF8012000F008F800BF08371B
:1003B400BD4680BD000402400000024080B588B004
:1003C40000AF0346FB7100220121334800F055FAC7
:1003D40000220321304800F050FA0023FB6102E0C0
:1003E400FB690133FB61FB6941F287329342F7DD1C
:1003F4000023BB6102E0BB690133BB61BB6941F20D
:1004040087329342F7DD01220221234800F035FAB6
:1004140000237B6102E07B6901337B617B6941F2EC
:1004240087329342F7DD00233B6112E03B69D9B286
:1004340001223B6902FA03F35AB297F907301340D9
:100444005BB2DBB21A46154800F017FA3B69013378
:100454003B613B69072BE9DD0023FB6002E0FB689D
:100464000133FB60FB6841F287329342F7DD0022DF
:100474000221094800F001FA0023BB6002E0BB68D6
:100484000133BB60BB6841F287329342F7DD00BFA2
:100494002037BD4680BD00BF00040240000002407A
:1004A40080B588B000AF0346FB71002201212D48BE
:1004B40000F0E3F9012203212A4800F0DEF90023C9
:1004C400FB6102E0FB690133FB61FB6941F28732A6
:1004D4009342F7DD01220221224800F0CEF90023E5
:1004E400BB6102E0BB690133BB61BB6941F2873286
:1004F4009342F7DD00237B6112E07B69D9B20122CC
:100504007B6902FA03F35AB297F9073013405BB2DE
:10051400DBB21A46144800F0B0F97B6901337B6101
:100524007B69072BE9DD00233B6102E03B69013372
:100534003B613B6941F287329342F7DD002202219D
:10054400084800F09AF90023FB6002E0FB680133DD
:10055400FB60FB6841F287329342F7DD00BF20372E
:10056400BD4680BD000402400000024080B584B056
:1005740000AF78600023FB7309E0FB7B7A681344C7
:100584001B781846FFF78CFFFB7B0133FB73FB7B67
:100594007A6813441B78002BEFD100BF1037BD4697
:1005A40080BD000080B584B000AF03460A46FB71ED
:1005B4001346BB71FB79032B19D801A252F823F01F
:1005C400D5050008DB050008E3050008EB05000875
:1005D400BB79FB730BE0BB794033FB7307E0BB795A
:1005E4001033FB7303E0BB795033FB7300BFFB7B19
:1005F40063F07F03DBB21846FFF7E0FE00BF10375D
:10060400BD4680BD80B586B000AF78607B6807F1D9
:1006140008010A22184600F0E7FA07F10803184611
:10062400FFF7A4FF00BF1837BD4680BD80B500AFFB
:100634000120FFF7C3FE00BF80BD000080B582B07B
:1006440000AF7860084611461A460346FB700B4615
:10065400BB7013467B707B68404A934206D1404B83
:100664001B6B3F4A43F00103136335E07B683D4A4B
:10067400934206D13A4B1B6B394A43F0020313638E
:100684002AE07B68384A934206D1354B1B6B344AC7
:1006940043F0040313631FE07B68344A934206D19A
:1006A4002F4B1B6B2E4A43F00803136314E07B6843
:1006B4002F4A934206D12A4B1B6B294A43F010035D
:1006C400136309E07B682B4A934205D1244B1B6BCF
:1006D400234A43F080031363BB78002B1CD07B6850
:1006E4001A68FB785B00012101FA03F31A437B6863
:1006F4001A607B681A68FB785B000133012101FAF8
:1007040003F3DB431A407B681A607A78FB78194656
:10071400786800F031F81CE07B681A68FB785B00AD
:10072400012101FA03F3DB431A407B681A607B68FA
:100734001A68FB785B000133012101FA03F3DB4300
:100744001A407B681A607A78FB781946786800F05A
:100754004EF800BF0837BD4680BD00BF0000024010
:10076400003802400004024000080240000C02402D
:1007740000100240001C024080B483B000AF7860D7
:100784000B46FB701346BB707B681A68FB785B00F2
:10079400012101FA03F31340002B21D07B681A686E
:1007A400FB785B000133012101FA03F31340002BB2
:1007B40016D1BB78002B02D0BB78012B0ED17B68FD
:1007C4005A68FB78012101FA03F3DB431340B9783B
:1007D400FA7801FA02F21A437B685A60012300E0B6
:1007E400002318460C37BD465DF8047B704780B47F
:1007F40083B000AF78600B46FB701346BB707B6818
:100804001A68FB785B00012101FA03F31340002B03
:100814002CD17B681A68FB785B000133012101FA53
:1008240003F31340002B21D1BB78002B05D0BB78F8
:10083400012B02D0BB78022B16D17B68DA68FB78D7
:100844005B0001219940FB785B000133012000FA31
:1008540003F30B43DB431340B978FA78520001FAEF
:1008640002F21A437B68DA60012300E00023184691
:100874000C37BD465DF8047B704780B483B000AF8D
:1008840078600B46FB701346BB707B681A68FB7874
:100894005B00012101FA03F31340002B18D0BB784D
:1008A400002B09D07B685A69FB78012101FA03F314
:1008B4001A437B685A6109E07B685A69FB78012115
:1008C40001FA03F3DB431A407B685A61012300E019
:1008D400002318460C37BD465DF8047B70470000C2
:1008E40080B586B000AFFFF733FD1148FFF73EFE39
:1008F40005210120FFF756FE0E48FFF737FE0023BF
:100904003B7200237B720023BB7207F108037B61F7
:100914007869FFF75DFC0820FFF7FAFCFB1D3B61DB
:100924003B1DFB60002318461837BD4680BD00BF41
:10093400A40D0008B80D000880B582B000AF184BB4
:10094400DB6CFB80FFF772FEFB8807EE903AB8EE93
:10095400E77ADFED146AC7EE267AB1EE047A67EE21
:10096400877A9FED117A67EE877AFDEEE77A17EEC4
:10097400903A3B600D48FFF7F9FD07210120FFF78E
:1009840011FE0B48FFF7F2FD3B681846FFF73AFEED
:100994000748FFF7EBFD00BF0837BD4680BD00BF29
:1009A4000020014000F4BF4500001643C00D0008BC
:1009B400D00D000880B500AF164BD3F88830154A27
:1009C40043F47003C2F88830134B1B68124A43F097
:1009D40001031360104B00229A600F4B1B680E4AF0
:1009E40023F0847323F4803313600B4B0B4A5A6057
:1009F400094B1B68084A23F480231360064B00222A
:100A0400DA6000F00DF8034B4FF000629A6000BF0B
:100A140080BD00BF00ED00E000380240103000242B
:100A240080B483B000AF00237B6000233B60354B70
:100A34001B68344A43F480331360324B1B6803F45D
:100A440000333B607B6801337B603B68002B03D140
:100A54007B68B3F5A04FF0D12A4B1B6803F4003335
:100A6400002B02D001233B6001E000233B603B6884
:100A7400012B40D1234B1B6C224A43F08053136457
:100A8400214B1B68204A43F4404313601D4B1D4A0D
:100A94009B6893601B4B1B4A9B689360194B9B6834
:100AA400184A43F480539360164B184A5A60154B06
:100AB4001B68144A43F08073136000BF114B1B681A
:100AC40003F00073002BF9D0114B40F202721A604C
:100AD4000C4B9B680B4A23F003039360094B9B6800
:100AE400084A43F00203936000BF064B9B6803F07F
:100AF4000C03082BF9D100BF0C37BD465DF8047B0D
:100B0400704700BF0038024000700040195441078C
:100B1400003C02400D4885460D480E490E4A00230C
:100B240002E0D458C4500433C4188C42F9D30B4A9D
:100B34000B4C002301E013600432A242FBD3FFF705
:100B440039FF00F011F8FFF7CBFEFEE700000120AB
:100B5400000000202C0400200C0E00082C040020AF
:100B64006C040020FEE7000070B50D4E0D4D761BA1
:100B7400B61006D00024013455F8043B9847A64229
:100B8400F9D1094E094D761B00F0FEF8B61006D0D7
:100B94000024013455F8043B9847A642F9D170BDAE
:100BA400000E0008000E0008080E0008000E0008E1
:100BB400931E222B15D80A2A10B50B4605D00C46D5
:100BC400194600F013F8204610BD0028F7DA2D244A
:100BD40003F8014B40420C46194600F007F8204642
:100BE40010BD002008707047FFF7E2BFF0B4DFF8D3
:100BF40078C0174604460E46BCE80F008AB06D461E
:100C04000FC5BCE80F000FC59CE80300BB1E45F8E8
:100C1400040B222B297023D8751E2846002200E0DD
:100C24001A46B4FBF7F10AAB07FB114423440C4604
:100C340013F8283C00F8013F531C0029F0D1F1546B
:100C440052B1334413F8011D15F8010F2970013412
:100C5400111B8C421870F5DB30460AB0F0BC7047AB
:100C640000203070F9E700BFD80D0008024B13B123
:100C7400024800F005B8704700000000910C00081D
:100C8400002301461A46184600F01EB838B50A4C2F
:100C94000A4D641BA4100AD004F18043013B05EB08
:100CA4008305013C55F804399847002CF9D1BDE877
:100CB400384000F06FB800BF0C0E0008080E0008A2
:100CC400704700BF704700BF2DE9F8432B4D06461F
:100CD400286898460F469146FFF7F2FF284B1C6898
:100CE400D4F84831002B3DD05A681F2A0DDC02F19C
:100CF400010C16BB0232C3F804C0286843F8227002
:100D0400FFF7E0FF0020BDE8F8831E4B7BB34FF4F0
:100D1400C870AFF30080034648B3D4F848210021DB
:100D2400C0E900214FF0010CC4F848010A46C0F89C
:100D34008811C0F88C11002EDCD003EB8201012451
:100D4400C1F88890D3F8880194402043022EC3F858
:100D54008801C1F80881CDD1D3F88C110C43C3F8B4
:100D64008C41C7E704F5A673C4F84831BCE728688A
:100D7400FFF7A8FF4FF0FF30C5E700BF28040020AD
:100D8400D40D000800000000F8B500BFF8BC08BC92
:100D94009E467047F8B500BFF8BC08BC9E46704735
:100DA40057656C636F6D6520546F2046696E616C86
:100DB4000000000050726F6A6563740054656D70C2
:100DC400204E6F772049733A200000002A0000006B
:100DD400000000203031323334353637383961621F
:100DE400636465666768696A6B6C6D6E6F70717257
:0C0DF400737475767778797A000000003F
:080E0000710C0008B9010008A3
:040E08009501000848
:100E0C0000000000EC02002054030020BC03002072
:100E1C0000000000000000000000000000000000C6
:100E2C0000000000000000000000000000000000B6
:100E3C0000000000000000000000000000000000A6
:100E4C000000000000000000000000000000000096
:100E5C000000000000000000000000000000000086
:100E6C000000000000000000000000000000000076
:100E7C000000000000000000000000000000000066
:100E8C000000000000000000000000000000000056
:100E9C000000000000000000000000000000000046
:100EAC000000000000000000010000000000000035
:100EBC000E33CDAB34126DE6ECDE05000B000000FA
:100ECC000000000000000000000000000000000016
:100EDC000000000000000000000000000000000006
:100EEC0000000000000000000000000000000000F6
:100EFC0000000000000000000000000000000000E6
:0C122C000000000000000000480400204A
:0400000508000B19CB
:00000001FF
